:100000000C945E000C9486000C9486000C944809B5
:100010000C9448090C9448090C9486000C948600B2
:100020000C9486000C9486000C9486000C94860038
:100030000C9486000C9486000C9486000C94860028
:100040000C94FE080C9486000C94CC080C94A60822
:100050000C9486000C9486000C9486000C94860008
:100060000C9486000C948600000000080002010039
:100070000003040700000000000000000000000072
:10008000250028002B0000000000240027002A0083
:10009000040404040404040402020202020203032E
:1000A0000303030301020408102040800102040836
:1000B00010200102040810205209F40D11241FBE63
:1000C000CFEFD8E0DEBFCDBF23E0A6E3B2E001C0B2
:1000D0001D92A93DB207E1F712E0A0E0B1E0ECE922
:1000E000F3E202C005900D92A633B107D9F710E0F4
:1000F000CDE5D0E004C02197FE010E94C90FCC35A8
:10010000D107C9F70E9494090C94C1110C94000006
:1001100090E0FC01EC55FF4F249180579F4FFC016C
:100120008491882399F090E0880F991FFC01EA5789
:10013000FF4FA591B491FC01E458FF4F8591949134
:100140008FB7F894EC91E22BEC938FBF089580E485
:1001500080937C0080917A00806480937A00809103
:100160007A0086FDFCCF8091780090917900089507
:100170000895AF92BF92CF92DF92EF92FF920F93CA
:100180001F93CF93DF936C017B018B01040F151F2D
:10019000EB015E01AE18BF08C017D10759F0699195
:1001A000D601ED91FC910190F081E02DC6010995F9
:1001B000892B79F7C501DF91CF911F910F91FF90A6
:1001C000EF90DF90CF90BF90AF900895FC01538DDA
:1001D000448D252F30E0842F90E0821B930B541721
:1001E00010F0CF96089501970895FC01918D828DAE
:1001F000981761F0A28DAE0FBF2FB11D5D968C9147
:10020000928D9F5F9F73928F90E008958FEF9FEF85
:100210000895FC01918D828D981731F0828DE80F41
:10022000F11D858D90E008958FEF9FEF0895FC01FB
:10023000918D228D892F90E0805C9F4F821B9109C8
:100240008F739927089585E492E00E94170121E0B9
:10025000892B09F420E0822F089580E090E0892B1B
:1002600029F00E94230181110C9400000895FC01E3
:10027000A48DA80FB92FB11DA35ABF4F2C91848D07
:1002800090E001968F739927848FA689B7892C9364
:10029000A089B1898C91837080648C93938D848DB7
:1002A000981306C00288F389E02D80818F7D8083BA
:1002B0000895EF92FF920F931F93CF93DF93EC017A
:1002C00081E0888F9B8D8C8D98131AC0E889F989FD
:1002D000808185FF15C09FB7F894EE89FF89608300
:1002E000E889F98980818370806480839FBF81E081
:1002F00090E0DF91CF911F910F91FF90EF900895C3
:10030000F62E0B8D10E00F5F1F4F0F731127E02E9D
:100310008C8D8E110CC00FB607FCFACFE889F989D5
:10032000808185FFF5CFCE010E943701F1CFEB8DA3
:10033000EC0FFD2FF11DE35AFF4FF0829FB7F894A9
:100340000B8FEA89FB8980818062CFCFCF93DF93C7
:10035000EC01888D8823B9F0AA89BB89E889F989DD
:100360008C9185FD03C0808186FD0DC00FB607FC12
:10037000F7CF8C9185FFF2CF808185FFEDCFCE0145
:100380000E943701E9CFDF91CF91089590E0FC0101
:10039000E859FF4F2491FC01EC55FF4F3491FC01CB
:1003A000E057FF4FE491EE23C9F0222339F02330C8
:1003B00001F1A8F4213019F1223029F1F0E0EE0F1B
:1003C000FF1FE458FF4FA591B4918FB7F894EC91BB
:1003D000611126C030953E233C938FBF089527308E
:1003E000A9F02830C9F0243049F7809180008F7D32
:1003F00003C0809180008F7780938000DFCF84B529
:100400008F7784BDDBCF84B58F7DFBCF8091B0002B
:100410008F778093B000D2CF8091B0008F7DF9CFDD
:100420003E2BDACFCF93DF93EC018AE00E94880065
:10043000209731F460E08AE0DF91CF910C94C601FF
:10044000CF3FD10511F461E0F6CFE2E7F0E0E491AF
:10045000E33029F140F4E130B1F0E230D9F0C038B6
:10046000D1058CF7E7CFE73021F1E83051F1E430E6
:10047000B1F780918000806280938000D0938B00E0
:10048000C0938A0004C084B5806884BDC7BDDF9175
:10049000CF91089584B5806284BDC8BDF8CF8091A6
:1004A0008000806880938000D0938900C09388008A
:1004B000EECF8091B00080688093B000C093B3000D
:1004C000E6CF8091B00080628093B000C093B4000A
:1004D000DECF3FB7F89480913D0290913E02A0910B
:1004E0003F02B091400226B5A89B05C02F3F19F0EE
:1004F0000196A11DB11D3FBFBA2FA92F982F8827A4
:10050000BC01CD01620F711D811D911D42E0660F7E
:10051000771F881F991F4A95D1F708952FB7F89430
:100520006091390270913A0280913B0290913C02B5
:100530002FBF089590E080E00895CF93DF93EC0102
:1005400060E08E810E94C60161E08E810E94C6013A
:1005500060E08E810E94C6018BE891E00197F1F77F
:10056000DF91CF910895CF92DF92EF92FF920F9398
:100570001F93CF93DF936C017C0187E0E80EF11CA1
:10058000D0E0C0E0062F10E0B8010C2E02C0759537
:1005900067950A94E2F76170F70181917F010E94EB
:1005A000C6012196C430D10579F7C601DF91CF91FC
:1005B0001F910F91FF90EF90DF90CF900C949D02D0
:1005C000CF92DF92EF92FF920F931F93CF93DF931F
:1005D000EC01F62E642F8C810E94C6018D818F3F25
:1005E00019F060E00E94C6010F2D10E08F8584FF96
:1005F00025C06E0187E0C80ED11CF12CE12CB8019A
:100600000E2C02C0759567950A94E2F76170F601A9
:1006100081916F010E94C601FFEFEF1AFF0A88E087
:10062000E816F10461F7CE01DF91CF911F910F9190
:10063000FF90EF90DF90CF900C949D02B80184E082
:10064000759567958A95E1F7CE010E94B3026F2DEB
:10065000CE01DF91CF911F910F91FF90EF90DF902E
:10066000CF900C94B30241E00E94E00281E090E060
:10067000089540E00C94E002FC012389421710F039
:100680004FEF420FFC01E40FF11D2489620F6068F7
:100690000C94390361E00E9439038BE39FE10197D9
:1006A000F1F708950F931F93CF93DF93EC0162301E
:1006B00019F48F8588608F876B8B1C8A80E48D8B03
:1006C00080E18E8B80E58F8B8C810E9488008D81EC
:1006D0008F3F11F00E9488008E810E9488008E0159
:1006E00098012C1B3D0B8F8584FD0CC084E090E0AD
:1006F0000F5F1F4F2817390744F4F80186810E94C5
:100700008800EECF88E090E0F3CF8BE39DE0019787
:10071000F1F760E08C810E94C60160E08E810E944A
:10072000C6018D818F3F19F060E00E94C6016F8580
:1007300064FD34C063E0CE010E94B3020BE416E412
:10074000C8010197F1F763E0CE010E94B302C8012E
:100750000197F1F763E0CE010E94B30283E592E0D6
:100760000197F1F762E0CE010E94B3026F856062EB
:10077000CE010E94390384E0888B6CE0CE010E9498
:100780003903CE010E944A0382E0898B66E0CE01E4
:10079000DF91CF911F910F910C9439036062CE01CC
:1007A0000E9439038BE496E40197F1F76F8560624C
:1007B000CE010E94390383E592E00197F1F76F853E
:1007C0006062CE010E943903D1CFEF92FF920F9366
:1007D0001F93CF93DF9300D000D0CDB7DEB785E471
:1007E00092E00E94F50085E492E00E94F5008E01FF
:1007F0000F5F1F4F78018A3341F0F80181938F0119
:1008000085E492E00E94F500F6CFC7010E94030E36
:10081000182F85E492E00E94F5008053990B8230F6
:10082000910520F4682F812F0E94C60185E492E093
:100830000E94F5008A3011F08D30C1F785E492E016
:100840000E9409018A3021F485E492E00E94F500BB
:100850000F900F900F900F90DF91CF911F910F91FC
:10086000FF90EF900895FB0101900020E9F7319788
:10087000AF01461B570BDC01ED91FC910280F38127
:10088000E02D09948F929F92AF92BF92EF92FF92C8
:100890000F931F93CF93DF93CDB7DEB7A1970FB61A
:1008A000F894DEBF0FBECDBF7C01FA01CB0119A2C7
:1008B000223008F42AE08E010F5D1F4F822E912C0A
:1008C000B12CA12CBF01A50194010E943A0FF9019E
:1008D000CA016A300CF5605DD8016E938D01232B3F
:1008E000242B252B79F790E080E0109721F0BD01B3
:1008F000C7010E943304A1960FB6F894DEBF0FBE65
:10090000CDBFDF91CF911F910F91FF90EF90BF90DE
:10091000AF909F908F900895695CDECFCF92DF9269
:10092000EF92FF920F931F93CF93DF936B01770F9B
:10093000EE08FF08F7FE1FC0EC01E881F981019085
:10094000F081E02D6DE209958C0144275527BA010D
:100950004C195D096E097F092AE0CE010E9442040C
:10096000800F911FDF91CF911F910F91FF90EF901A
:10097000DF90CF9008952AE0B701A601DF91CF91D3
:100980001F910F91FF90EF90DF90CF900C94420455
:10099000CF93DF93D0E0C0E0009731F0BC0185E455
:1009A00092E00E943304EC0164E271E085E492E09D
:1009B0000E9433048C0F9D1FDF91CF9108950C94FA
:1009C0003304DF92EF92FF920F931F93CF93DF9345
:1009D000EC01FC01EE57FF4F60817181072E000C86
:1009E000880B990B0E942B0E20E030E040E250E48F
:1009F0000E94660E0E94930FCB010E941202888112
:100A000099810E944A0340E060E0888199810E94B8
:100A10003C032A813B818E819F812817390709F485
:100A20006DC0888599858217930709F467C08A8508
:100A30009B858217930709F461C0F12CE12C10E02B
:100A400000E03CE0D32E888199812A813B81D29EAF
:100A5000F001D39EF00D11247496EE0DFF1DEC0FE6
:100A6000FD1F4481558160817181DC01ED91FC9114
:100A70000280F381E02D0995EA81FB81EE0FFF1FD3
:100A8000E00FF11FFA96EE0FFF1FEC0FFD1F6081C4
:100A90007181888199816138BFEF7B0789F00E945D
:100AA0008E0441E060E0888199810E943C0326E049
:100AB000E20EF11C0130110551F001E010E0C3CF4E
:100AC00067E271E00E94DF04ECCF0E948E048A8905
:100AD000882309F447C041E06FE0888199810E9432
:100AE0003C036DE271E088819981DF91CF911F9184
:100AF0000F91FF90EF90DF900C94DF048881998133
:100B00004CE0429FF001439FF00D11247496EC0FCE
:100B1000FD1F4481558160817181DC01ED91FC9163
:100B20000280F381E02D099541E060E088819981A0
:100B30000E943C03EA81FB81EE0FFF1FEE0FFF1FB7
:100B4000EC0FFD1FEA58FF4F608171818881998108
:100B50006138BFEF7B0709F0B8CF67E271E00E9410
:100B6000DF04B5CFDF91CF911F910F91FF90EF90F0
:100B7000DF900895FC0180819181009711F00C9421
:100B80006B1008956F927F928F929F92AF92BF9257
:100B9000CF92DF92EF92FF920F931F93CF93DF9349
:100BA0007C018B01FB0180819181F701918380831E
:100BB000FB0182819381F70193838283FB0184810E
:100BC0009581F70195838483FB0186819781F701E5
:100BD00097838683FB0180859185F70191878087C4
:100BE000FB0182859385F70193878287FB018485CA
:100BF0009585F70195878487FB0186859785F701A1
:100C000097878687FB0180899189F701918B808B7B
:100C1000FB018289F701828BFB018389F701838BBA
:100C2000C70144966B01F4E1CF0ED11C37012CE5CE
:100C3000620E711CEC015C018CE0A80EB11C460137
:100C4000C815D905E9F088819981009709F461C038
:100C5000F401608171816115710509F458C04A8100
:100C60005B81248135814217530708F450C00E94EC
:100C7000BA11F401848195819D838C83158214823D
:100C80002696F6E08F0E911CCA15DB05C9F6CE013B
:100C90002CE0C20ED11CC615D70561F6F801E45A46
:100CA000FF4F489620813181398328832281338107
:100CB0003B832A8324963496C817D90799F7D7011E
:100CC000AC58BF4FF801EC58FF4FCD01489620813A
:100CD000318111963C932E932281338113963C935C
:100CE0002E931297149634968A179B0781F7C701A3
:100CF000DF91CF911F910F91FF90EF90DF90CF90F8
:100D0000BF90AF909F908F907F906F9008950E94BA
:100D10006B10F40180819181998388838281938112
:100D20009B838A83848195819D838C831182108229
:100D300013821282A3CF0F931F93CF93DF93EC0103
:100D400088819981009759F02A813B8126173707BE
:100D500030F081E0DF91CF911F910F9108958B01C9
:100D60006F5F7F4F0E94F410009759F0998388833A
:100D70001B830A832C813D81232B59F7FC011082B0
:100D8000E8CF80E0E7CFEF92FF920F931F93CF93CE
:100D9000DF93EC017B01FB0101900020E9F7319723
:100DA0008F01061B170BB8010E949B062881398111
:100DB000811113C02115310519F0C9010E946B1072
:100DC000198218821D821C821B821A82DF91CF91A8
:100DD0001F910F91FF90EF9008951D830C83B70131
:100DE000C901DF91CF911F910F91FF90EF900C946B
:100DF000BA110C94240FAF92BF92CF92DF92EF9270
:100E0000FF920F931F93CF93DF93EC016C0184E16A
:100E1000C80ED11C5E01ECE5AE0EB11C9C2D8D2DD3
:100E2000092F182F7801FCE0EF0EF11CF801118258
:100E30001082138212821582148270E060E0C80171
:100E40000E949B06F801208131818111FBC0211590
:100E5000310519F0C9010E946B10F801118210824E
:100E600015821482138212820A5F1F4FE016F10668
:100E7000E9F69E2D8F2DEA14FB0491F684E090E0B4
:100E80009B838A831D821C8288E190E00E94CF0FA1
:100E90008C01FC01138212828AE091E091838083AD
:100EA00088E084838FEF858389E0868384E087836D
:100EB00085E0808786E0818787E0828713861486B5
:100EC00015861686178661E0C8010E9452031983B1
:100ED00008831A8A1B8A41E050E05F834E8322E038
:100EE00030E03987288783E090E09B878A875D8799
:100EF0004C873F872E87998B888B1B821A826FE2E3
:100F000071E0C6010E94C3066AE371E0CE014A9611
:100F10000E94C30665E471E0CE0180960E94C3067C
:100F200066E271E0CE0186960E94C30667E571E035
:100F3000CE018C960E94C30666E271E0CE01C29695
:100F40000E94C30669E671E0CE01C8960E94C306FE
:100F500066E271E0CE01CE960E94C3066CE771E0B6
:100F6000CE018C5B9F4F0E94C30667E871E0CE0103
:100F7000865B9F4F0E94C30662E971E0CE01805BF1
:100F80009F4F0E94C3066DE971E0CE018A5A9F4FC0
:100F90000E94C30681E09FEFF70191838083FE01E9
:100FA000E25AFF4F91838083329624E630E031830A
:100FB00020833296118210823296318320833296BA
:100FC00011821082329631832083329611821082F0
:100FD0003296918380833296918380833296918377
:100FE000808332969183808362E0888199810E9418
:100FF0005203888199810E944A0340E061E0888120
:1010000099810E943C0368EA71E0888199810E947D
:10101000DF0441E065E0888199810E943C0367EB31
:1010200071E0888199810E94DF04CE01DF91CF9128
:101030001F910F91FF90EF90DF90CF90BF90AF90F6
:101040000C94E1041582148266E271E0C9010E94E9
:10105000BA110ACFCF92DF92EF92FF920F931F93B4
:10106000CF93DF93CDB7DEB7CC58D1090FB6F89444
:10107000DEBF0FBECDBF8C010E94FB06F801E45716
:10108000FF4F16828CEB91E00E94C804F801EE56E7
:10109000FF4F1082CE0101960E94FB06BE016F5FDA
:1010A0007F4FC8010E94C2057E018DE5E80EF11C4C
:1010B0006E0185E1C80ED11C86E0E81AF108C7016F
:1010C0000E94BA05EC14FD04B9F7F801EB56FF4F86
:1010D000980123553F4F82E390E09183808393836F
:1010E00082833496E217F307C1F785E090E00E940F
:1010F000F906F801E556FF4F90E09183808386E082
:1011000090E00E94F906F801E156FF4F90E09183CC
:10111000808387E090E00E94F906F801ED55FF4FCB
:1011200090E091838083709711821082C457DF4FC3
:101130000FB6F894DEBF0FBECDBFDF91CF911F91E8
:101140000F91FF90EF90DF90CF9008951F920F9234
:101150000FB60F9211242F933F934F935F936F938A
:101160007F938F939F93AF93BF93EF93FF9385E408
:1011700092E00E943701FF91EF91BF91AF919F9153
:101180008F917F916F915F914F913F912F910F9030
:101190000FBE0F901F9018951F920F920FB60F92CF
:1011A00011242F938F939F93EF93FF93E091550218
:1011B000F09156028081E0915B02F0915C0282FD29
:1011C0001BC0908180915E028F5F8F7320915F02C0
:1011D000821741F0E0915E02F0E0EB5BFD4F958FEE
:1011E00080935E02FF91EF919F918F912F910F90CD
:1011F0000FBE0F901F9018958081F4CF1F920F9211
:101200000FB60F9211242F933F938F939F93AF9319
:10121000BF938091390290913A02A0913B02B09124
:101220003C023091380223E0230F2D3758F5019608
:10123000A11DB11D209338028093390290933A0288
:10124000A0933B02B0933C0280913D0290913E02FC
:10125000A0913F02B09140020196A11DB11D809363
:101260003D0290933E02A0933F02B0934002BF9193
:10127000AF919F918F913F912F910F900FBE0F9043
:101280001F90189526E8230F0296A11DB11DD2CFFD
:101290001F920F920FB60F9211240F900FBE0F9056
:1012A0001F901895E5E4F2E01382128288EE93E035
:1012B000A0E0B0E084839583A683B78386E191E0C4
:1012C0009183808385EC90E09587848784EC90E01F
:1012D0009787868780EC90E0918B808B81EC90E003
:1012E000938B828B82EC90E0958B848B86EC90E0E4
:1012F000978B868B118E128E138E148EE2EEF2E097
:101300001682178210861186128613861486158619
:1013100016861786108A118A128A138A148A158AE9
:1013200088E293E00C942A08CF93DF93CDB7DEB721
:10133000CD5AD1090FB6F894DEBF0FBECDBF789459
:1013400084B5826084BD84B5816084BD85B58260CA
:1013500085BD85B5816085BD80916E00816080937B
:101360006E001092810080918100826080938100E4
:1013700080918100816080938100809180008160F4
:10138000809380008091B10084608093B10080914F
:10139000B00081608093B00080917A008460809377
:1013A0007A0080917A00826080937A0080917A003E
:1013B000816080937A0080917A00806880937A00BF
:1013C0001092C1001092240310922503109226035C
:1013D000109227031092E4021092E5021092E602A6
:1013E0001092E7020E948E026B017C014B015C01AE
:1013F00028EB820E2BE0921EA11CB11C0E948E02D3
:101400006C157D058E059F0528F086169706A806A3
:10141000B906A0F70E9469024B015C0178EEC72E65
:1014200073E0D72EE12CF12C0E946902681979092A
:101430008A099B09683E734081059105A8F331E054
:10144000C31AD108E108F10848EE840E43E0941E67
:10145000A11CB11CC114D104E104F10429F7E091ED
:101460005502F091560282E08083E0915102F091A2
:1014700052021082E0915302F091540280E1808385
:1014800010925D02E0915902F0915A0286E0808349
:10149000E0915702F0915802808180618083E09151
:1014A0005702F0915802808188608083E091570252
:1014B000F0915802808180688083E0915702F0911A
:1014C000580280818F7D80830E948E026093E402A7
:1014D0007093E5028093E6029093E70269EE71E073
:1014E00085E492E00E94DF040E948E026B017C0181
:1014F0004B015C016AE0860E911CA11CB11C0E948C
:101500008E026C157D058E059F0528F086169706C0
:10151000A806B906A0F781E08093F8020E948E0227
:101520006093E4027093E5028093E6029093E702F1
:101530006AEF71E085E492E00E94DF0481E092E0CE
:101540000E94C804CE0101960E942A08BE016F5F66
:101550007F4F88E293E00E94C20587E0FE01E357D7
:10156000FF4FA4EBB3E001900D928A95E1F7CC56C2
:10157000DF4F88819981C459D0409093BC038093F8
:10158000BB03EDEBF3E0DE01AA56BF4F85ED93E020
:101590002D913C9111973183208312962D913C918E
:1015A000139733832283349614968E179F0781F7FF
:1015B0008E01035A1F4F7E0185E1E80EF11C065093
:1015C0001109C8010E94BA050E151F05C1F711E0E7
:1015D00058EEC52E53E0D52EE12CF12C6EEF262EC1
:1015E00033243A940E948E02672B682B692B09F4EE
:1015F00004C10E948E028090410290904202A0900D
:101600004302B0904402681579058A059B0508F4E9
:1016100010C28090410290904202A0904302B0908C
:1016200044029B01AC01281939094A095B094901A7
:101630005A013AEF83169104A104B10408F4E5C0FD
:10164000609341027093420280934302909344025C
:1016500084EF91E0A0E0B0E08093F0029093F1027B
:10166000A093F202B093F3021092F4021092F502EA
:101670001092F6021092F7028091E8029091E9022E
:10168000A091EA02B091EB028093EC029093ED02FC
:10169000A093EE02B093EF020E948E026093E802E4
:1016A0007093E9028093EA029093EB0285E492E062
:1016B0000E940901843611F40E94E5030E948E0203
:1016C0006093E4027093E5028093E6029093E70250
:1016D0000E948E024B015C0165E172E085E492E0BC
:1016E0000E94DF042AE041E050E060E070E085E421
:1016F00092E00E9442046CE172E085E492E00E9474
:10170000DF042AE0B501A40185E492E00E944204CE
:1017100065E871E085E492E00E94DF048091E802D0
:101720009091E902A091EA02B091EB02B501A40107
:10173000481B590B6A0B7B0B2AE085E492E00E9460
:10174000420465E871E085E492E00E94DF04409184
:10175000E8025091E9026091EA027091EB028091F7
:10176000EC029091ED02A091EE02B091EF02481BC5
:10177000590B6A0B7B0B2AE085E492E00E9442043D
:1017800060E272E085E492E00E94DF040E948E0233
:10179000AB01BC012AE085E492E00E94420482E2AF
:1017A00092E00E94C8040E948E024B015C012B0152
:1017B0003C0192E0490E511C611C711C0E948E027A
:1017C000681579058A059B0528F0461657066806B0
:1017D0007906A0F785E492E00E940901843611F4AD
:1017E0000E94E5030E948E026093E8027093E90272
:1017F0008093EA029093EB0208C00E948E0262304E
:1018000071058105910508F0F4CE0E94A700823F82
:1018100093400CF0A9C00E948E02672B682B692BA5
:1018200009F410C10E948E025B010E94A7009C0176
:101830002E5131402732310550F41092B5031092E9
:10184000B403EFEFFFEFF093B703E093B6039C010F
:101850002B5531092B33310550F41092B5031092FA
:10186000B40321E030E03093B7032093B6039C012A
:101870002D5B32402133310588F42091BA032127B2
:101880002093BA03875D9D4F0E94C8043092B50330
:101890002092B4033092B7032092B60380912C03B8
:1018A00090912D03A501481B590BCA0157FF03C096
:1018B000919581959109893C91050CF44DC0409119
:1018C000B4035091B50380912A0390912B0320918A
:1018D0003A032111C3C02091B6033091B7034E3FA4
:1018E0005F4FE1F42E3FAFEF3A07C1F4409134036C
:1018F000509135038417950709F45CC14091360374
:10190000509137034817590709F454C140913803DF
:10191000509139034817590709F44CC1820F931F9E
:10192000863091050CF095C090932B0380932A0389
:1019300080912A0390912B0397FF06C085E090E0E9
:1019400090932B0380932A0388E293E00E94E104A2
:10195000B0922D03A0922C031092B5031092B40301
:101960001092B7031092B6030E948E02672B682B69
:10197000692B09F4E7C00E948E02A70196010E941C
:101980003A0F653D73408105910508F4EEC0009162
:101990003A030111EAC080913B038823E9F085E016
:1019A00090E00E94F90690E09093C4038093C303F3
:1019B00086E090E00E94F90690E09093C80380933F
:1019C000C70387E090E00E94F90690E09093CC0373
:1019D0008093CB0310923B03E0912A03F0912B03F9
:1019E000CF01880F991F880F991FDC01A354BC4FAA
:1019F0002D913C911197FC01E456FC4F408151819F
:101A00002417350719F03183208301E012962D91B8
:101A10003C91FC01E256FC4F8081918128173907E7
:101A200009F4C0C03183208388E293E00E94E1047E
:101A30009CC0609341027093420280934302909352
:101A40004402E7CD0E948E02AA24BB24A61AB70A3C
:101A5000ECCE10922B0310922A036ACF4E3F5F4FB9
:101A6000F9F42091B6033091B7032E3F3F4FC1F4F4
:101A700020913403309135038217930709F49DC0F8
:101A800020913603309137032817390709F495C0A0
:101A900020913803309139038217930709F48DC0E0
:101AA000FC01EE0FFF1FEE0FFF1FEC57FC4F608194
:101AB0007181DC01AA0FBB1FAA0FBB1FAD01485DDE
:101AC0005C4F4A01F6E78F0E911CF40120813181B1
:101AD000261737075CF4425A5F4FFA014081518163
:101AE000421753076CF041E050E005C04FEF5FEF45
:101AF00062177307C1F7A256BC4F240F351F07C0EA
:101B00004091B6035091B703240F351FD4012D9394
:101B10003C93039709F018CF6091AA037091AB032F
:101B2000072E000C880B990B0E942B0E20E030E052
:101B300040E250E40E94660E0E94930FCB010E9487
:101B4000120202CF0E948E02909580957095619549
:101B50007F4F8F4F9F4FA70196010E943A0F653D1F
:101B600073408105910508F012CF8091BB039091DD
:101B7000BC039093BE038093BD0384369105ACF4FF
:101B800001969093BC038093BB0320E030E0232BAD
:101B900009F428CD0E942301882309F423CD0E9453
:101BA000000020CD002309F33FCF1092BC03109218
:101BB000BB03EBCF10933A03C7CE6091A20385E03D
:101BC00090E00E942C0F6091A60386E090E00E94B6
:101BD0002C0F6091AA0387E090E00E942C0F1093D5
:101BE0003B0310923A03B0CECF93DF93C4E8D3E027
:101BF0002697CE010E94BA0583E0CC33D807C1F7FF
:101C0000DF91CF910895FC0188279927E8942191CD
:101C10002032E9F3293010F02E30C8F32B3241F096
:101C20002D3239F4689404C00E94210E820F911D58
:101C3000219120532A30C0F31EF4909581959F4F37
:101C400008957AE0979F902D879F802D910D112404
:101C50000895E89409C097FB3EF49095809570959F
:101C600061957F4F8F4F9F4F9923A9F0F92F96E9E8
:101C7000BB279395F695879577956795B795F1115D
:101C8000F8CFFAF4BB0F11F460FF1BC06F5F7F4FFA
:101C90008F4F9F4F16C0882311F096E911C077230C
:101CA00021F09EE8872F762F05C0662371F096E815
:101CB000862F70E060E02AF09A95660F771F881FE4
:101CC000DAF7880F9695879597F908950E94790E0F
:101CD0000C94EA0E0E94DC0E38F00E94E30E20F015
:101CE000952311F00C94D30E0C94D90E11240C945E
:101CF0001E0F0E94FB0E70F3959FC1F3950F50E0ED
:101D0000551F629FF001729FBB27F00DB11D639FAD
:101D1000AA27F00DB11DAA1F649F6627B00DA11D53
:101D2000661F829F2227B00DA11D621F739FB00DF9
:101D3000A11D621F839FA00D611D221F749F332769
:101D4000A00D611D231F849F600D211D822F762F02
:101D50006A2F11249F5750409AF0F1F088234AF0DF
:101D6000EE0FFF1FBB1F661F771F881F915050404B
:101D7000A9F79E3F510580F00C94D30E0C941E0FD2
:101D80005F3FE4F3983ED4F3869577956795B795D2
:101D9000F795E7959F5FC1F7FE2B880F911D9695EC
:101DA000879597F9089597F99F6780E870E060E05C
:101DB00008959FEF80EC089500240A9416161706E4
:101DC00018060906089500240A941216130614062C
:101DD00005060895092E0394000C11F4882352F08F
:101DE000BB0F40F4BF2B11F460FF04C06F5F7F4F47
:101DF0008F4F9F4F089557FD9058440F551F59F02E
:101E00005F3F71F04795880F97FB991F61F09F3FE7
:101E100079F087950895121613061406551FF2CF10
:101E20004695F1DF08C0161617061806991FF1CF60
:101E300086957105610508940895E894BB27662787
:101E40007727CB0197F90895F999FECF92BD81BD0F
:101E5000F89A992780B50895262FF999FECF1FBAD1
:101E600092BD81BD20BD0FB6F894FA9AF99A0FBEC3
:101E700001960895A1E21A2EAA1BBB1BFD010DC0FD
:101E8000AA1FBB1FEE1FFF1FA217B307E407F5072A
:101E900020F0A21BB30BE40BF50B661F771F881F06
:101EA000991F1A9469F760957095809590959B019C
:101EB000AC01BD01CF0108952F923F924F925F92E6
:101EC0006F927F928F929F92AF92BF92CF92DF924A
:101ED000EF92FF920F931F93CF93DF93CDB7DEB7AF
:101EE000CA1BDB0B0FB6F894DEBF0FBECDBF099443
:101EF0002A88398848885F846E847D848C849B849A
:101F0000AA84B984C884DF80EE80FD800C811B81A7
:101F1000AA81B981CE0FD11D0FB6F894DEBF0FBED6
:101F2000CDBFED0108950E949A0F6894B1110C94F1
:101F30001E0F08950E94030F88F09F5798F0B92F45
:101F40009927B751B0F0E1F0660F771F881F991FEE
:101F50001AF0BA95C9F714C0B13091F00E941D0F64
:101F6000B1E008950C941D0F672F782F8827B85F74
:101F700039F0B93FCCF3869577956795B395D9F746
:101F80003EF490958095709561957F4F8F4F9F4F50
:101F90000895EE0FFF1F0590F491E02D09940F9323
:101FA0001F93CF93DF938230910510F482E090E08D
:101FB000E091D703F091D80330E020E0B0E0A0E05A
:101FC000309799F42115310509F44AC0281B390BC3
:101FD00024303105D8F58A819B816115710589F11D
:101FE000FB0193838283FE0111C0408151810281F4
:101FF000138148175907E0F04817590799F41097CB
:1020000061F012960C93129713961C933296CF019F
:10201000DF91CF911F910F9108950093D7031093F3
:10202000D803F4CF2115310551F04217530738F08A
:10203000A901DB019A01BD01DF01F801C1CFEF0168
:10204000F9CF9093D8038093D703CDCFFE01E20F51
:10205000F31F819391932250310939832883D7CF7D
:102060002091D5033091D603232B41F42091020116
:10207000309103013093D6032093D50320910001C2
:10208000309101012115310541F42DB73EB7409142
:10209000040150910501241B350BE091D503F0910B
:1020A000D603E217F307A0F42E1B3F0B28173907BE
:1020B00078F0AC014E5F5F4F2417350748F04E0FA4
:1020C0005F1F5093D6034093D503819391939FCF85
:1020D000F0E0E0E09CCFCF93DF930097E9F0FC01C4
:1020E000329713821282A091D703B091D803ED01E9
:1020F00030E020E01097A1F420813181820F931FFE
:102100002091D5033091D6032817390709F061C013
:10211000F093D603E093D503DF91CF910895EA01C0
:10212000CE17DF07E8F54A815B819E014115510515
:10213000B1F7E901FB83EA8349915991C40FD51F97
:10214000EC17FD0761F4808191810296840F951F41
:10215000E90199838883828193819B838A83F0E05C
:10216000E0E012968D919C9113970097B9F52D910F
:102170003C911197CD010296820F931F2091D503B8
:102180003091D6032817390739F6309751F5109258
:10219000D8031092D703B093D603A093D503BCCF36
:1021A000D383C28340815181840F951FC817D907FB
:1021B00061F44E5F5F4F88819981480F591F5183A9
:1021C00040838A819B81938382832115310509F0A5
:1021D000B0CFF093D803E093D7039ECFFD01DC018D
:1021E000C0CF13821282D7CFB0E0A0E0EAEFF0E1D7
:1021F0000C945E0F8C01009751F4CB010E94CF0F1D
:102200008C01C801CDB7DEB7E0E10C947A0FFC0178
:10221000E60FF71F9C0122503109E217F30708F47B
:102220009DC0D901CD91DC911197C617D70798F0C1
:10223000C530D10530F3CE0104978617970708F310
:10224000C61BD70B2297C193D1936D937C93CF017B
:102250000E946B10D6CF5B01AC1ABD0A4C018C0EEC
:102260009D1EA091D703B091D803512C412CF12C85
:10227000E12C109731F58091D5039091D603881504
:10228000990509F05CC04616570608F058C08091C1
:10229000000190910101009741F48DB79EB74091E4
:1022A000040150910501841B950BE817F90708F00C
:1022B00055C0F093D603E093D503F9017183608391
:1022C000A0CF8D919C91119712966C9012971396B6
:1022D0007C901397A815B90559F56C0142E0C40E1E
:1022E000D11CCA14DB0420F1AC014A195B09DA01E4
:1022F0001296159780F06282738251834083D901D0
:102300006D937C93E114F10471F0D7011396FC9363
:10231000EE93129776CF22968C0F9D1FF901918331
:102320008083F301EFCFF093D803E093D70369CF15
:102330004816590608F42C017D01D3019ACFCB0130
:102340000E94CF0F7C01009749F0AE01B8010E94B6
:10235000B111C8010E946B10870153CF10E000E05B
:1023600050CFFB01DC0102C001900D924150504062
:10237000D8F70895FB01DC0101900D920020E1F7F0
:10238000089510E0CDE5D0E004C0FE010E94C90F21
:0C2390002196CE35D107C9F7F894FFCF95
:10239C000000D9038000000000003303B9009A024A
:1023AC00B800000000005901B900E600A6011701B1
:1023BC00F50009010D0A004368796261005300566B
:1023CC006F6E6B75202020203A004365727061643B
:1023DC006C6F203A004E6173742E63657270616489
:1023EC002E7A6170203A004E6173742E63657270A0
:1023FC0061642E767970203A00506F64737669654B
:10240C0074656E6965204C4344203A004B6F746FC1
:10241C006C202020203A00426F6A6C6572202020CC
:10242C003A005069766E69636120203A00566C68F8
:10243C006B6F737420203A0041686F6A2074657268
:10244C006D6F73746174003230323100567974766A
:10245C006172616D204B6C617665736E696375207A
:10246C006120446973706C656A2061204F766C61E1
:10247C00646163202121212100564D4450565F3167
:10248C007C315F564D4450560A00564D4450525FB5
:10249C0000567974766172616D206D616E6765723C
:1024AC006120212100564D4450455F003A323A00DC
:1024BC007C005F564D4450450053656C65637475E4
:0624CC006A656D200000AE
:107E0000112484B714BE81FFF0D085E080938100F7
:107E100082E08093C00088E18093C10086E0809377
:107E2000C20080E18093C4008EE0C9D0259A86E02C
:107E300020E33CEF91E0309385002093840096BBD3
:107E4000B09BFECF1D9AA8958150A9F7CC24DD24C4
:107E500088248394B5E0AB2EA1E19A2EF3E0BF2EE7
:107E6000A2D0813461F49FD0082FAFD0023811F036
:107E7000013811F484E001C083E08DD089C08234E0
:107E800011F484E103C0853419F485E0A6D080C0E4
:107E9000853579F488D0E82EFF2485D0082F10E0AE
:107EA000102F00270E291F29000F111F8ED06801E7
:107EB0006FC0863521F484E090D080E0DECF843638
:107EC00009F040C070D06FD0082F6DD080E0C81688
:107ED00080E7D80618F4F601B7BEE895C0E0D1E017
:107EE00062D089930C17E1F7F0E0CF16F0E7DF06D8
:107EF00018F0F601B7BEE89568D007B600FCFDCFD4
:107F0000A601A0E0B1E02C9130E011968C91119780
:107F100090E0982F8827822B932B1296FA010C0160
:107F200087BEE89511244E5F5F4FF1E0A038BF0790
:107F300051F7F601A7BEE89507B600FCFDCF97BE46
:107F4000E89526C08437B1F42ED02DD0F82E2BD052
:107F50003CD0F601EF2C8F010F5F1F4F84911BD097
:107F6000EA94F801C1F70894C11CD11CFA94CF0C13
:107F7000D11C0EC0853739F428D08EE10CD085E9AC
:107F80000AD08FE07ACF813511F488E018D01DD067
:107F900080E101D065CF982F8091C00085FFFCCF94
:107FA0009093C60008958091C00087FFFCCF809118
:107FB000C00084FD01C0A8958091C6000895E0E648
:107FC000F0E098E1908380830895EDDF803219F02E
:107FD00088E0F5DFFFCF84E1DECF1F93182FE3DFCA
:107FE0001150E9F7F2DF1F91089580E0E8DFEE27F6
:047FF000FF270994CA
:027FFE00040479
:0400000300007E007B
:00000001FF